:030000000202D623
:0C02D600787FE4F6D8FD75812202031D3C
:07051D00C109C10801220021
:10036200E4F508F509F50AF50BF50CF510F50FF5AE
:100372000EF50D120536300845C2081204F88F0A30
:10038200AC0AE41201BEE4FBFA79A0784012000E36
:10039200E4FBFA797F78431201178F108E0F8D0ECE
:1003A2008C0DE4FFFE7D7A7C44AB10AA0FA90EA847
:1003B2000D12000E1201F28E0B8F0C1203CC3009BB
:0A03C200B5AF0A7E0012000380AC04
:1004F800C295D296C297E4FFE52025E0F520D29771
:100508000000A2969200C29700000FBF08EAD29599
:04051800AF207E0092
:01051C0022BC
:10053600758901758CF9758ACDD2AFD2A9D28C2274
:03000B0002042DBF
:10042D00C0E0C0F0C083C082C0D075D000C000C095
:10043D0001C002C003C004C005C006C007758CF919
:10044D00758ACD120486D2097FFF7E001204D0AFCB
:10045D00220522EFC394144005752200D208D0075F
:10046D00D006D005D004D003D002D001D000D0D01A
:09047D00D082D083D0F0D0E0322F
:0A054600C0F9A4B0999282F88090E9
:090524000418FFFFFFFF0117009E
:1004860075B0FF74182517F8E6F5B0E51714601077
:1004960014601714601E24037022D293C292800443
:1004A600C293D292C291C2908012C293C292D2914A
:1004B600C2908008C293C292C291D290E517C394AB
:0904C600034004E4F517220517B8
:0104CF00220A
:0403CC008E118F12ED
:1003D000E4FBAE11AF127C007D0A12027374132B82
:1003E000F8A605AE11AF127C007D0A1202738E11C1
:1003F0008F120BBB04DC7B0374132BF8E6700F74B5
:10040000182BF876C01BC3EB6480948050EAC3EBD2
:1004100064809480401374132BF8E690054693FF94
:0C04200074182BF8A6071B80E5531B7F07
:01042C0022AD
:08052D00021E0000021C000088
:050003008E1E8F1F227C
:1004D000051DE51D7002051CD39FE51C9E4008E428
:1004E000F51CF51DD29422C3E51D951FE51C951E34
:0704F0005003D29422C294D4
:0104F70022E2
:10000E00EC4D6011E8497017ED33EC3304600DE4EC
:10001E00FCFFFEFD22E933E8330470F802025E12A3
:10002E00022958046009E4CC2481500628500902A4
:10003E000268284003020265C0E0EB4A7044B980B2
:10004E0006D0E0FB020254EF4E701CBD8008EBFFA1
:10005E00EAFEE9FD80EBE98DF0A4FEE5F00200F783
:10006E00E9CDF9EAFEEBFFEF89F0A4FCE5F0CE89CD
:10007E00F0A42EFFE435F0CD89F0A42DFEE435F08A
:10008E008067EF4E7005BD80D780C3EF8BF0A4ACB8
:10009E00F0EE8BF0A42CFCE435F0F8EF8AF0A42CF3
:1000AE00E5F038FCE433CB8DF0A42CFCE5F03BF806
:1000BE00EE8AF0A42CFCE5F038F8E433CF89F0A4F6
:1000CE002CFCE5F038CF3400CE89F0A42FFFE5F0FC
:1000DE003EFEE433C98DF0A42EFEE5F039CD8AF054
:1000EE00A42FFFE5F03EFEE43DFD33D0E0FB5007CC
:1000FE000BBB000F020268EC2CFCEF33FFEE33FE5D
:06010E00ED33FD0202408A
:10011400020268EC5D046005E85904700302025EA3
:10012400120229580460F6EC4860F2EC7004FDFEFB
:10013400FF22C860DB2481C85009C39860025006BE
:100144000202659850CAF582E9294B4A7005AB82D0
:1001540002025475F0007C1A7880C3EF9BEE9AED8E
:1001640099400DC3EF9BFFEE9AFEED99FDE842F036
:10017400DC23ACF0D0E0FFD0E0FED0E0FDAB822089
:10018400E7101BEB60BAEC2CFCEF33FFEE33FEED13
:1001940033FD020240E803F830E705C0F075F000D3
:1001A400EF2FFFEE33FEED33FD40B830E7C280AAF7
:1001B40075F020800E75F010800575F0087D007EC6
:1001C400007F003392D530D5031202C8EC334010BF
:1001D400EF33FFEE33FEED33FDEC33FCD5F0ED22CF
:0E01E400E5F0247EA2D513CC92E7CDCEFF220B
:1001F200EDD2E7CD33EC3392D524814006E4FFFE05
:10020200FDFC22FCE4CFCECDCC24E0501174FF8063
:10021200EDC3CC13CCCD13CDCE13CECF13CF047000
:07022200F030D5DE0202C836
:10022900E9D2E7C933E833F892D5EDD2E7CD33EC1B
:0702390033FC5002B2D52294
:10024000EC30E7100FBF000C0EBE00080DBD00041F
:100250000BEB6014A2D5EB13FCED92E7FD2274FFCB
:10026000FCFDFEFF22E480F8A2D574FF13FC7D8024
:03027000E480EF38
:1002E200020362E493A3F8E493A34003F68001F2CD
:1002F20008DFF48029E493A3F85407240CC8C3331D
:10030200C4540F4420C8834004F456800146F6DFEB
:10031200E4800B010204081020408090051DE47E59
:10032200019360BCA3FF543F30E509541FFEE493E0
:10033200A360010ECF54C025E060A840B8E493A3A7
:10034200FAE493A3F8E493A3C8C582C8CAC583CAD2
:10035200F0A3C8C582C8CAC583CADFE9DEE780BE8A
:0105350000C5
:10027300BC000BBE0029EF8DF084FFADF022E4CC6F
:10028300F875F008EF2FFFEE33FEEC33FCEE9DEC38
:10029300984005FCEE9DFE0FD5F0E9E4CEFD22ED7E
:1002A300F8F5F0EE8420D21CFEADF075F008EF2FC8
:1002B300FFED33FD4007985006D5F0F222C398FDB9
:0502C3000FD5F0EA2256
:0E02C800C3E49FFFE49EFEE49DFDE49CFC2247
:00000001FF
